:1000000002002602000E020D0000000203523232EE
:0200100032328A
:0300130002000FD9
:03001B00020010D0
:10002300020011787FE4F6D8FD75810E02006D029F
:10003300011CE493A3F8E493A34003F68001F208C0
:10004300DFF48029E493A3F85407240CC8C333C412
:10005300540F4420C8834004F456800146F6DFE47D
:10006300800B0102040810204080900006E47E010A
:100073009360BCA3FF543F30E509541FFEE493A3F0
:1000830060010ECF54C025E060A840B8E493A3FA02
:10009300E493A3F8E493A3C8C582C8CAC583CAF08E
:1000A300A3C8C582C8CAC583CADFE9DEE780BEEE3E
:1000B300705BEF14B4080050549000CA75F003A4A9
:1000C300C58325F0C583730200E20200E60200EE59
:1000D3000200F20200FA0200FE02010602010AC255
:1000E300808002D280C281C2828022C2808002D2FA
:1000F30080D281C2828016C2808002D280C281D225
:1001030082800AC2808002D280D281D282D284C20B
:1001130084C39285D286C2862212026A7F017E0040
:100123001202067BFF7A017979E4FDFC1201CD7F8F
:10013300027E001202067BFF7A01798EE4FDFC1237
:1001430001CD1202947F037E001202067BFF7A0127
:1001530079A3E4FDFC1201CD1202941202947F04F0
:100163007E001202067BFF7A0179B8E4FDFC1201DE
:10017300CD12037580FE5465737465206465206435
:100183006973706C6179202020200041676F726170
:10019300206573637269746F20656D2043202000AE
:1001A30046756D6574612070726120636172616C64
:1001B300686F20200044656D6F726F752C206D6130
:1001C3007320736169752E2E2E008B088A09890AA4
:1001D3008C0B8D0CC3E50C9414E50B648094805058
:1001E30021AB08AA09A90A850C82850B8312023D5B
:1001F300F59012036B12032C050CE50C70D6050B5E
:1002030080D222EE702DEF24FE601214601714606A
:100213001C2403701E75080075098080167508007C
:100223007509C0800E75080075099480067508006D
:100233007509D4AF09AE0802035FBB010CE582293F
:10024300F582E5833AF583E0225006E92582F8E654
:1002530022BBFE06E92582F8E222E58229F582E542
:10026300833AF583E493227F387E0012035F7F385D
:100273007E0012035F7F067E0012035F7F0C7E0009
:1002830012035F7F017E0012035F7F807E00020303
:100293005F758902758A37758C37D2B9D2AFD2A907
:1002A300D28CE4F50DF50EC3E50E9488E50D64805C
:1002B300949340F3C28C22758902758A37758C3703
:1002C300D2B9D2AFD2A9D28CE4F50DF50EC3E50EA7
:1002D30094E8E50D6480948340F3C28C227589020F
:1002E300758A37758C37D2B9D2AFD2A9D28CE4F5DF
:1002F3000DF50EC3E50E94F4E50D6480948140F38F
:10030300C28C22758902758A37758C37D2B9D2AF00
:10031300D2A9D28CE4F50DF50EC3E50E9421E50DBB
:100323006480948040F3C28C22758902758AD875E3
:100333008CD8D2B9D2AFD2A9D28CE4F50DF50EC3C5
:10034300E50E9402E50D6480948040F3C28C22C0D4
:10035300E0050EE50E7002050DD0E032C2B0D2B159
:100363008F90120306C2B122D2B0D2B112032CC2B3
:10037300B12212037F7F017E000200B2C283C284D6
:03038300C286220D
:00000001FF
